S0100000707973657269616C2E73726563AB
S11300000C9434000C9446000C9446000C94460066
S11300100C9446000C9446000C9446000C94460044
S11300200C9446000C9446000C9446000C94460034
S11300300C9446000C9446000C9446000C94460024
S11300400C9446000C9446000C9446000C94460014
S11300500C9446000C9446000C9446000C94460004
S11300600C9446000C94460011241FBECFEFD8E038
S1130070DEBFCDBF21E0A0E0B1E001C01D92A530FC
S1130080B207E1F70E94B5000C94CC000C94000078
S11300901092C50083E38093C4001092C000E1EC89
S11300A0F0E088E0808388E1808386E08093C2006A
S11300B00895E0ECF0E0908195FFFDCF8093C600B9
S11300C00895E0ECF0E080818823ECF78091C6008D
S11300D008958093020191E0980F909301018E5F3F
S11300E08093000108952AE030E092E095B94FEF43
S11300F051EE64E0415050406040E1F700C0000020
S113010015B84FEF51EE64E0415050406040E1F7C4
S113011000C000002150310949F78F3019F481E003
S113012085B9089584E085B908950E94610080939B
S113013004010E945900809104010E9473000895F3
S1130140809103018F5F8093030190E00E94690016
S1130150809102010E945900809101010E9459007E
S1130160809100010E94590008950E9448008FEF79
S113017084B92FEF83ED90E3215080409040E1F764
S113018000C00000C6ECD0E0888181110E94950077
S10F019018820E94A000F8CFF894FFCF62
S9030000FC
