:100000000C9434000C9446000C9446000C9446006A
:100010000C9446000C9446000C9446000C94460048
:100020000C9446000C9446000C9446000C94460038
:100030000C9446000C9446000C9446000C94460028
:100040000C9446000C9446000C9446000C94460018
:100050000C9446000C9446000C9446000C94460008
:100060000C9446000C94460011241FBECFEFD8E03C
:10007000DEBFCDBF21E0A0E0B1E001C01D92A53000
:10008000B207E1F70E94B9000C94D0000C94000074
:100090001092C50083E38093C4001092C000E1EC8D
:1000A000F0E088E0808388E1808386E08093C2006E
:1000B0000895E0ECF0E0908195FFFDCF8093C600BD
:1000C0000895E0ECF0E080818823ECF78091C60091
:1000D00008958093020191E0980F909301018E5F43
:1000E0008093000108958E30D1F48AE090E022E000
:1000F00025B93FEF41EE54E0315040405040E1F728
:1001000000C0000015B83FEF41EE54E031504040D0
:100110005040E1F700C00000019751F708958F3F6C
:1001200019F481E085B908958F3011F484E085B920
:1001300008950E946100809304010E9459008091FB
:1001400004010E9473000895809103018F5F8093E2
:10015000030190E00E946900809102010E94590011
:10016000809101010E945900809100010E94590074
:1001700008950E9448008FEF84B92FEF83ED90E33C
:10018000215080409040E1F700C00000C6ECD0E074
:10019000888181110E94990018820E94A400F8CFE2
:0401A000F894FFCF01
:00000001FF
