:100000000C9434000C9446000C9446000C9446006A
:100010000C9446000C9446000C9446000C94460048
:100020000C9446000C9446000C9446000C94460038
:100030000C9446000C9446000C9446000C94460028
:100040000C9446000C9446000C9446000C94460018
:100050000C9446000C9446000C9446000C94460008
:100060000C9446000C94460011241FBECFEFD8E03C
:10007000DEBFCDBF21E0A0E0B1E001C01D92AD30F8
:10008000B207E1F70E94B4000C94A8020C9400009F
:100090001092C50083E38093C4001092C000E1EC8D
:1000A000F0E088E0808388E1808386E08093C2006E
:1000B000089580E680937C0087E880937A00089515
:1000C000EAE7F0E0808180648083808186FDFDCF57
:1000D000809179000895E0ECF0E0908195FFFDCFEC
:1000E0008093C6000895E0ECF0E080818823ECF76F
:1000F0008091C60008958E30B1F482E085B92FEF6B
:1001000039E698E1215030409040E1F700C000000E
:1001100015B82FEF39E698E1215030409040E1F7D3
:1001200000C00000EBCF8F3F19F481E085B908953E
:100130008F3011F484E085B90895CF930E94730045
:10014000C82F682F70E080E090E00E94AD016093BE
:1001500001017093020180930301909304018C2F9D
:100160000E947B00CF9108950E9448000E94590090
:100170008FEF84B9C6ECD0E02FEF89E698E12150EB
:1001800080409040E1F700C000000E946000809332
:100190000001682F70E080E090E00E94AF0123E052
:1001A00030E040EA5BE30E943B02609305017093FC
:1001B0000601809307019093080120E030E040E0C1
:1001C0005FE30E940A0120E030E048EC52E40E9424
:1001D0003B0220E030E040E251E40E943B026B0130
:1001E0007C016093090170930A0180930B01909345
:1001F0000C018FEF0E946B00C701B6010E947701CE
:10020000862F0E946B008881882309F4B5CF0E9455
:100210009D00B2CF5058BB27AA270E9422010C9400
:1002200001020E94F30138F00E94FA0120F039F433
:100230009F3F19F426F40C94F0010EF4E095E7FBCF
:100240000C94EA01E92F0E94120258F3BA176207D0
:1002500073078407950720F079F4A6F50C9434020F
:100260000EF4E0950B2EBA2FA02D0B01B9019001D1
:100270000C01CA01A0011124FF27591B99F0593F15
:1002800050F4503E68F11A16F040A22F232F342F5D
:100290004427585FF3CF469537952795A795F040AB
:1002A0005395C9F77EF41F16BA0B620B730B840BC0
:1002B000BAF09150A1F0FF0FBB1F661F771F881F78
:1002C000C2F70EC0BA0F621F731F841F48F48795D0
:1002D00077956795B795F7959E3F08F0B0CF9395C2
:1002E000880F08F09927EE0F9795879508950E943B
:1002F0007E016894B1110C94350208950E941A028F
:1003000088F09F5798F0B92F9927B751B0F0E1F0D6
:10031000660F771F881F991F1AF0BA95C9F714C086
:10032000B13091F00E943402B1E008950C9434028F
:10033000672F782F8827B85F39F0B93FCCF38695BF
:1003400077956795B395D9F73EF49095809570951C
:1003500061957F4F8F4F9F4F0895E89409C097FB99
:100360003EF490958095709561957F4F8F4F9F4F8C
:100370009923A9F0F92F96E9BB279395F6958795D0
:1003800077956795B795F111F8CFFAF4BB0F11F493
:1003900060FF1BC06F5F7F4F8F4F9F4F16C088233A
:1003A00011F096E911C0772321F09EE8872F762F70
:1003B00005C0662371F096E8862F70E060E02AF0B1
:1003C0009A95660F771F881FDAF7880F969587959D
:1003D00097F9089597F99F6780E870E060E00895C5
:1003E0009FEF80EC089500240A941616170618064D
:1003F0000906089500240A94121613061406050629
:100400000895092E0394000C11F4882352F0BB0FB9
:1004100040F4BF2B11F460FF04C06F5F7F4F8F4F1C
:100420009F4F089557FD9058440F551F59F05F3F57
:1004300071F04795880F97FB991F61F09F3F79F006
:1004400087950895121613061406551FF2CF469588
:10045000F1DF08C0161617061806991FF1CF86950A
:100460007105610508940895E894BB2766277727EE
:10047000CB0197F908950E944E020C9401020E944C
:10048000F30138F00E94FA0120F0952311F00C944A
:10049000EA010C94F00111240C9435020E9412021E
:1004A00070F3959FC1F3950F50E0551F629FF001C7
:1004B000729FBB27F00DB11D639FAA27F00DB11DE0
:1004C000AA1F649F6627B00DA11D661F829F222769
:1004D000B00DA11D621F739FB00DA11D621F839FF0
:1004E000A00D611D221F749F3327A00D611D231FC6
:1004F000849F600D211D822F762F6A2F11249F5714
:1005000050409AF0F1F088234AF0EE0FFF1FBB1F16
:10051000661F771F881F91505040A9F79E3F5105D5
:1005200080F00C94EA010C9435025F3FE4F3983EAE
:10053000D4F3869577956795B795F795E7959F5F7F
:10054000C1F7FE2B880F911D9695879597F9089511
:04055000F894FFCF4D
:00000001FF
