S013000074656D70657261747575722E7372656353
S11300000C9434000C9451000C94CF000C945100C7
S11300100C9451000C9451000C9451000C94510018
S11300200C9451000C9451000C9451000C94510008
S11300300C9451000C9400010C9451000C94510048
S11300400C9451000C9451000C9451000C945100E8
S11300500C9451000C9451000C9451000C945100D8
S11300600C9451000C94510011241FBECFEFD8E022
S1130070DEBFCDBF11E0A0E0B1E0EEE9F6E002C0E2
S113008005900D92A030B107D9F721E0A0E0B1E0CE
S113009001C01D92A031B207E1F70E9417010C9430
S11300A04D030C94000084B18FEF84B95398529A95
S11300B017B808951092800010928100EFE6F0E0E6
S11300C0808181608083089510928500109284005D
S11300D01092020110920101E1E8F0E08081816058
S11300E08083089584E08093690082E08DBB089545
S11300F02FEF80E792E0215080409040E1F700C06C
S113010000005A9825E02A95F1F700005A9A85E3F1
S11301108A95F1F700005A9808952091840030914F
S11301208500A0E0B0E0DC0199278827BC01CD015F
S1130130620F731F811D911D20EA33E040E050E0FF
S11301400E940C03C90108951092C50083E38093B3
S1130150C4001092C000E1ECF0E088E0808388E104
S1130160808386E08093C200089580E680937C00BB
S113017087E880937A000895EAE7F0E0808180645C
S11301808083808186FDFDCF809179000895E0EC25
S1130190F0E0908195FFFDCF8093C60008951F92F3
S11301A00F920FB60F9211242F933F934F935F93A7
S11301B06F937F938F939F93AF93BF93EF93FF932B
S11301C080910001809581708093000180910001ED
S11301D0882319F00E94640002C00E945A00FF9113
S11301E0EF91BF91AF919F918F917F916F915F91AB
S11301F04F913F912F910F900FBE0F901F90189524
S11302001F920F920FB60F9211248F939F93809198
S113021001019091020101969093020180930101E2
S11302209F918F910F900FBE0F901F9018950E9471
S1130230A4000E94B5000E9453000E9472000E9414
S11302405A0078940E9478002FEF85EA9EE02150AE
S113025080409040E1F700C000008091010190913E
S113026002010E948D00C82F0E94BC0080930301EC
S1130270682F70E080E090E00E94130223E030E0F9
S113028040EA5BE30E949F0220E030E44CE955E43D
S11302900E949F02609308017093090180930A01F0
S11302A090930B0120E030E04AEF53E40E94750183
S11302B02DEC3CEC4CEC5DE30E949F0260930C013E
S11302C070930D0180930E0190930F010E94E2013F
S11302D0862F0E94C7008FE39CE90197F1F700C0C5
S11302E000008C2F0E94C700ADCF5058BB27AA270F
S11302F00E948D010C9465020E94570238F00E94FE
S11303005E0220F039F49F3F19F426F40C94540251
S11303100EF4E095E7FB0C944E02E92F0E9476025E
S113032058F3BA17620773078407950720F079F426
S1130330A6F50C9498020EF4E0950B2EBA2FA02D7E
S11303400B01B90190010C01CA01A0011124FF277E
S1130350591B99F0593F50F4503E68F11A16F04079
S1130360A22F232F342F4427585FF3CF4695379578
S11303702795A795F0405395C9F77EF41F16BA0B3D
S1130380620B730B840BBAF09150A1F0FF0FBB1FEB
S1130390661F771F881FC2F70EC0BA0F621F731F34
S11303A0841F48F4879577956795B795F7959E3F91
S11303B008F0B0CF9395880F08F09927EE0F979522
S11303C0879508950E947E0288F09F5798F0B92F70
S11303D09927B751B0F0E1F0660F771F881F991F76
S11303E01AF0BA95C9F714C0B13091F00E9498027E
S11303F0B1E008950C949802672F782F8827B85F8E
S113040039F0B93FCCF3869577956795B395D9F7CD
S11304103EF490958095709561957F4F8F4F9F4FD7
S11304200895E89409C097FB3EF4909580957095E3
S113043061957F4F8F4F9F4F9923A9F0F92F96E92C
S1130440BB279395F695879577956795B795F111A1
S1130450F8CFFAF4BB0F11F460FF1BC06F5F7F4F3E
S11304608F4F9F4F16C0882311F096E911C0772350
S113047021F09EE8872F762F05C0662371F096E859
S1130480862F70E060E02AF09A95660F771F881F28
S1130490DAF7880F9695879597F9089597F99F67E6
S11304A080E870E060E008959FEF80EC08950024F8
S11304B00A941616170618060906089500240A94C5
S11304C012161306140605060895092E0394000C4B
S11304D011F4882352F0BB0F40F4BF2B11F460FFDA
S11304E004C06F5F7F4F8F4F9F4F089557FD905803
S11304F0440F551F59F05F3F71F04795880F97FBE4
S1130500991F61F09F3F79F087950895121613069D
S11305101406551FF2CF4695F1DF08C016161706CC
S11305201806991FF1CF8695710561050894089501
S1130530E894BB2766277727CB0197F908950E9493
S1130540B2020C9465020E94570238F00E945E02C7
S113055020F0952311F00C944E020C9454021124B3
S11305600C9499020E94760270F3959FC1F3950F43
S113057050E0551F629FF001729FBB27F00DB11D23
S1130580639FAA27F00DB11DAA1F649F6627B00DB3
S1130590A11D661F829F2227B00DA11D621F739F9C
S11305A0B00DA11D621F839FA00D611D221F749FAA
S11305B03327A00D611D231F849F600D211D822FF1
S11305C0762F6A2F11249F5750409AF0F1F0882318
S11305D04AF0EE0FFF1FBB1F661F771F881F915045
S11305E05040A9F79E3F510580F00C944E020C94A4
S11305F099025F3FE4F3983ED4F386957795679527
S1130600B795F795E7959F5FC1F7FE2B880F911D6E
S11306109695879597F90895052E97FB1EF40094F7
S11306200E94230357FD07D00E942B0307FC03D02D
S11306304EF40C94230350954095309521953F4FEB
S11306404F4F5F4F089590958095709561957F4FBA
S11306508F4F9F4F0895A1E21A2EAA1BBB1BFD01C9
S11306600DC0AA1FBB1FEE1FFF1FA217B307E4078D
S1130670F50720F0A21BB30BE40BF50B661F771FE5
S1130680881F991F1A9469F76095709580959095C5
S11106909B01AC01BD01CF010895F894FFCF8A
S9030000FC
