S01D00006C69636874696E74656E736974656973656E736F722E737265631D
S11300000C9434000C9451000C94CC000C945100CA
S11300100C9451000C9451000C9451000C94510018
S11300200C9451000C9451000C9451000C94510008
S11300300C9451000C94FD000C9451000C9451004C
S11300400C9451000C9451000C9451000C945100E8
S11300500C9451000C9451000C9451000C945100D8
S11300600C9451000C94510011241FBECFEFD8E022
S1130070DEBFCDBF11E0A0E0B1E0ECE0F3E002C0F0
S113008005900D92A030B107D9F721E0A0E0B1E0CE
S113009001C01D92A630B207E1F70E9414010C942E
S11300A084010C94000017B85398529A0895109242
S11300B0800010928100EFE6F0E08081816080830F
S11300C008951092850010928400109202011092FB
S11300D00101E1E8F0E0808181608083089584E09B
S11300E08093690082E08DBB08952FEF80E792E052
S11300F0215080409040E1F700C000005A9825E06C
S11301002A95F1F700005A9A85E38A95F1F70000E1
S11301105A9808952091840030918500A0E0B0E0C1
S1130120DC0199278827BC01CD01620F731F811D53
S1130130911D20EA33E040E050E00E944301C901F0
S113014008951092C50083E38093C4001092C00008
S1130150E1ECF0E088E0808388E1808386E08093AE
S1130160C2000895E0ECF0E0908195FFFDCF80930C
S1130170C600089580E680937C0087E880937A0027
S11301800895EAE7F0E0808180648083808186FDC1
S1130190FDCF8091790008951F920F920FB60F92B0
S11301A011242F933F934F935F936F937F938F9378
S11301B09F93AF93BF93EF93FF938091000180953A
S11301C081708093000180910001882319F00E94BE
S11301D0610002C00E945700FF91EF91BF91AF915F
S11301E09F918F917F916F915F914F913F912F914B
S11301F00F900FBE0F901F9018951F920F920FB67D
S11302000F9211248F939F93809101019091020189
S1130210019690930201809301019F918F910F9019
S11302200FBE0F901F9018950E946F000E94A100AE
S11302300E94BA000E9457000E94530078940E94C2
S1130240750080910101909102010E948A00C82FDB
S11302500E94C1008093030180EF0E94B2008C2FA2
S11302600E94B2008FE00E94B200809103010E94BC
S1130270B2002FEF89E698E1215080409040E1F7E9
S113028000C00000DCCF052E97FB1EF400940E94F2
S11302905A0157FD07D00E94620107FC03D04EF4B7
S11302A00C945A0150954095309521953F4F4F4FEE
S11302B05F4F089590958095709561957F4F8F4F0E
S11302C09F4F0895A1E21A2EAA1BBB1BFD010DC06E
S11302D0AA1FBB1FEE1FFF1FA217B307E407F507F2
S11302E020F0A21BB30BE40BF50B661F771F881FCE
S11302F0991F1A9469F760957095809590959B0164
S10F0300AC01BD01CF010895F894FFCFBB
S9030000FC
