:100000000C9434000C9446000C9446000C9446006A
:100010000C9446000C9446000C9446000C94460048
:100020000C9446000C9446000C9446000C94460038
:100030000C9446000C9446000C9446000C94460028
:100040000C9446000C9446000C9446000C94460018
:100050000C9446000C9446000C9446000C94460008
:100060000C9446000C94460011241FBECFEFD8E03C
:10007000DEBFCDBF21E0A0E0B1E001C01D92A23003
:10008000B207E1F70E9473000C9488000C94000002
:100090001092C50083E38093C4001092C000E1EC8D
:1000A000F0E088E0808388E1808386E08093C2006E
:1000B0000895E0ECF0E0908195FFFDCF8093C600BD
:1000C000089580E680937C0087E880937A00089505
:1000D000EAE7F0E0808180648083808186FDFDCF47
:1000E00080917900089517B80E9448000E9461002D
:1000F0002FEF85EA9EE0215080409040E1F700C05C
:1001000000000E946800809300010E945900F0CF17
:04011000F894FFCF91
:00000001FF
