S01D00006C69636874696E74656E736974656973656E736F722E737265631D
S11300000C9434000C9451000C94CF000C945100C7
S11300100C9451000C9451000C9451000C94510018
S11300200C9451000C9451000C9451000C94510008
S11300300C9451000C9400010C9451000C94510048
S11300400C9451000C9451000C9451000C945100E8
S11300500C9451000C9451000C9451000C945100D8
S11300600C9451000C94510011241FBECFEFD8E022
S1130070DEBFCDBF11E0A0E0B1E0E8E4F3E002C0F0
S113008005900D92A030B107D9F721E0A0E0B1E0CE
S113009001C01D92A630B207E1F70E9417010C942B
S11300A0A2010C94000017B884B18FEF84B953985F
S11300B0529A08951092800010928100EFE6F0E0C9
S11300C0808181608083089510928500109284005D
S11300D01092020110920101E1E8F0E08081816058
S11300E08083089584E08093690082E08DBB089545
S11300F02FEF80E792E0215080409040E1F700C06C
S113010000005A9825E02A95F1F700005A9A85E3F1
S11301108A95F1F700005A9808952091840030914F
S11301208500A0E0B0E0DC0199278827BC01CD015F
S1130130620F731F811D911D20EA33E040E050E0FF
S11301400E946101C90108951092C50083E3809360
S1130150C4001092C000E1ECF0E088E0808388E104
S1130160808386E08093C2000895E0ECF0E0908103
S113017095FFFDCF8093C600089580E680937C00B0
S113018087E880937A000895EAE7F0E0808180644C
S11301908083808186FDFDCF8091790008951F9230
S11301A00F920FB60F9211242F933F934F935F93A7
S11301B06F937F938F939F93AF93BF93EF93FF932B
S11301C080910001809581708093000180910001ED
S11301D0882319F00E94640002C00E945A00FF9113
S11301E0EF91BF91AF919F918F917F916F915F91AB
S11301F04F913F912F910F900FBE0F901F90189524
S11302001F920F920FB60F9211248F939F93809198
S113021001019091020101969093020180930101E2
S11302209F918F910F900FBE0F901F9018950E9471
S113023072000E94A4000E94BD000E945A000E9405
S1130240530078940E9478002FEF80E792E02150C9
S113025080409040E1F700C000008091010190913E
S113026002010E948D00C82F0E94C40080930301E4
S11302708FEF0E94B5002FEF80E792E0215080407D
S11302809040E1F700C000008C2F0E94B5002FEFD2
S113029080E792E0215080409040E1F700C00000E8
S11302A08FE00E94B5002FEF80E792E0215080405C
S11302B09040E1F700C00000809103010E94B50066
S11302C0C1CF052E97FB1EF400940E94780157FDC0
S11302D007D00E94800107FC03D04EF40C947801EF
S11302E050954095309521953F4F4F4F5F4F08955E
S11302F090958095709561957F4F8F4F9F4F08958E
S1130300A1E21A2EAA1BBB1BFD010DC0AA1FBB1F15
S1130310EE1FFF1FA217B307E407F50720F0A21B87
S1130320B30BE40BF50B661F771F881F991F1A94F4
S113033069F760957095809590959B01AC01BD011E
S10B0340CF010895F894FFCFEA
S9030000FC
