:100000000C9434000C9446000C9446000C9446006A
:100010000C9446000C9446000C9446000C94460048
:100020000C9446000C9446000C9446000C94460038
:100030000C9446000C9446000C9446000C94460028
:100040000C9446000C9446000C9446000C94460018
:100050000C9446000C9446000C9446000C94460008
:100060000C9446000C94460011241FBECFEFD8E03C
:10007000DEBFCDBF21E0A0E0B1E001C01D92A13004
:10008000B207E1F70E9461000C9474000C94000028
:100090001092C50083E38093C4001092C000E1EC8D
:1000A000F0E088E0808388E1808386E08093C2006E
:1000B0000895E0ECF0E0908195FFFDCF8093C600BD
:1000C000089517B80E94480018B82FEF80E792E013
:1000D000215080409040E1F700C0000086B180933D
:0C00E00000010E945900F0CFF894FFCFFF
:00000001FF
