:100000000C9434000C9446000C9446000C9446006A
:100010000C9446000C9446000C9446000C94460048
:100020000C9446000C9446000C9446000C94460038
:100030000C9446000C9446000C9446000C94460028
:100040000C9446000C9446000C9446000C94460018
:100050000C9446000C9446000C9446000C94460008
:100060000C9446000C94460011241FBECFEFD8E03C
:10007000DEBFCDBF21E0A0E0B1E001C01D92A13004
:10008000B207E1F70E9473000C9484000C94000006
:100090001092C50083E38093C4001092C000E1EC8D
:1000A000F0E088E0808388E1808386E08093C2006E
:1000B0000895E0ECF0E0908195FFFDCF8093C600BD
:1000C0000895E0ECF0E080818823ECF78091C60091
:1000D00008958F3F29F415B884E60E9459000895C9
:1000E0008FEF85B908950E9448008FEF84B90E9470
:1000F0006100809300010E9469008FE39CE90197F1
:0C010000F1F700C00000F3CFF894FFCF2F
:00000001FF
