:100000000C9434000C9446000C9446000C9446006A
:100010000C9446000C9446000C9446000C94460048
:100020000C9446000C9446000C9446000C94460038
:100030000C9446000C9446000C9446000C94460028
:100040000C9446000C9446000C9446000C94460018
:100050000C9446000C9446000C9446000C94460008
:100060000C9446000C94460011241FBECFEFD8E03C
:10007000DEBFCDBF21E0A0E0B1E001C01D92A830FD
:10008000B207E1F70E9485000C94EF000C94000089
:1000900019B883EF91E00197F1F700C000008FEFEE
:1000A00089B983EC99E00197F1F700C0000019B815
:1000B00029B183B193B182238913FACF29B183B1D6
:1000C00093B1822389130BC020E030E02F5F3F4FB4
:1000D00049B193B183B194239817C1F302C020E0D2
:1000E00030E0C90164EB70E00E94C700072E000CED
:1000F000880B990B0E948C006093000170930101A2
:10010000809302019093030108950E94480080E0CB
:1001100090E00895E89409C097FB3EF4909580958F
:10012000709561957F4F8F4F9F4F9923A9F0F92FBD
:1001300096E9BB279395F695879577956795B7953B
:10014000F111F8CFFAF4BB0F11F460FF1BC06F5F21
:100150007F4F8F4F9F4F16C0882311F096E911C033
:10016000772321F09EE8872F762F05C0662371F054
:1001700096E8862F70E060E02AF09A95660F771F68
:10018000881FDAF7880F9695879597F9089597FB5A
:10019000072E16F4009407D077FD09D00E94DB00EB
:1001A00007FC05D03EF4909581959F4F089570957A
:1001B00061957F4F0895AA1BBB1B51E107C0AA1F81
:1001C000BB1FA617B70710F0A61BB70B881F991FF8
:1001D0005A95A9F780959095BC01CD010895F894A2
:0201E000FFCF4F
:00000001FF
